{
  "_format": "hh-sol-artifact-1",
  "contractName": "WavePortal",
  "sourceName": "contracts/WavePortal.sol",
  "abi": [
    {
      "inputs": [],
      "stateMutability": "payable",
      "type": "constructor"
    },
    {
      "anonymous": false,
      "inputs": [
        {
          "indexed": true,
          "internalType": "address",
          "name": "from",
          "type": "address"
        },
        {
          "indexed": false,
          "internalType": "uint256",
          "name": "timestamp",
          "type": "uint256"
        },
        {
          "indexed": false,
          "internalType": "string",
          "name": "message",
          "type": "string"
        }
      ],
      "name": "NewWave",
      "type": "event"
    },
    {
      "inputs": [],
      "name": "getAllWaves",
      "outputs": [
        {
          "components": [
            {
              "internalType": "address",
              "name": "waver",
              "type": "address"
            },
            {
              "internalType": "uint256",
              "name": "timestamp",
              "type": "uint256"
            },
            {
              "internalType": "string",
              "name": "message",
              "type": "string"
            }
          ],
          "internalType": "struct WavePortal.Wave[]",
          "name": "",
          "type": "tuple[]"
        }
      ],
      "stateMutability": "view",
      "type": "function"
    },
    {
      "inputs": [],
      "name": "getTotalWaves",
      "outputs": [
        {
          "internalType": "uint256",
          "name": "",
          "type": "uint256"
        }
      ],
      "stateMutability": "view",
      "type": "function"
    },
    {
      "inputs": [
        {
          "internalType": "address",
          "name": "",
          "type": "address"
        }
      ],
      "name": "lastWaveTmp",
      "outputs": [
        {
          "internalType": "uint256",
          "name": "",
          "type": "uint256"
        }
      ],
      "stateMutability": "view",
      "type": "function"
    },
    {
      "inputs": [
        {
          "internalType": "string",
          "name": "_message",
          "type": "string"
        }
      ],
      "name": "wave",
      "outputs": [],
      "stateMutability": "nonpayable",
      "type": "function"
    }
  ],
  "bytecode": "0x6080604052606444426200001491906200002c565b62000020919062000093565b60018190555062000129565b6000620000398262000089565b9150620000468362000089565b9250827fffffffffffffffffffffffffffffffffffffffffffffffffffffffffffffffff038211156200007e576200007d620000cb565b5b828201905092915050565b6000819050919050565b6000620000a08262000089565b9150620000ad8362000089565b925082620000c057620000bf620000fa565b5b828206905092915050565b7f4e487b7100000000000000000000000000000000000000000000000000000000600052601160045260246000fd5b7f4e487b7100000000000000000000000000000000000000000000000000000000600052601260045260246000fd5b610f4e80620001396000396000f3fe608060405234801561001057600080fd5b506004361061004c5760003560e01c8063449d46c0146100515780637065fa451461006d5780639a2cdc081461009d578063bd43a908146100bb575b600080fd5b61006b600480360381019061006691906107d5565b6100d9565b005b610087600480360381019061008291906107ac565b610455565b6040516100949190610af0565b60405180910390f35b6100a561046d565b6040516100b29190610af0565b60405180910390f35b6100c3610476565b6040516100d09190610a3e565b60405180910390f35b42610384600360003373ffffffffffffffffffffffffffffffffffffffff1673ffffffffffffffffffffffffffffffffffffffff168152602001908152602001600020546101279190610c02565b10610167576040517f08c379a000000000000000000000000000000000000000000000000000000000815260040161015e90610ad0565b60405180910390fd5b606460015444426101789190610c02565b6101829190610c02565b61018c9190610d39565b60018190555042600360003373ffffffffffffffffffffffffffffffffffffffff1673ffffffffffffffffffffffffffffffffffffffff1681526020019081526020016000208190555060016000808282546101e89190610c02565b92505081905550600260405180606001604052803373ffffffffffffffffffffffffffffffffffffffff16815260200142815260200183815250908060018154018082558091505060019003906000526020600020906003020160009091909190915060008201518160000160006101000a81548173ffffffffffffffffffffffffffffffffffffffff021916908373ffffffffffffffffffffffffffffffffffffffff1602179055506020820151816001015560408201518160020190805190602001906102b892919061068c565b5050503373ffffffffffffffffffffffffffffffffffffffff167f5f7e16dc676677766a70e9c5628aa6c54ddb8b6e5188e2ae1e1f17f1ffbea7164283604051610303929190610b0b565b60405180910390a2603260015411610452576103546040518060400160405280601081526020017f596f75206861766520776f6e2025732000000000000000000000000000000000815250336105c7565b600066038d7ea4c680009050478111156103a3576040517f08c379a000000000000000000000000000000000000000000000000000000000815260040161039a90610a90565b60405180910390fd5b60003373ffffffffffffffffffffffffffffffffffffffff16826040516103c990610a29565b60006040518083038185875af1925050503d8060008114610406576040519150601f19603f3d011682016040523d82523d6000602084013e61040b565b606091505b505090508061044f576040517f08c379a000000000000000000000000000000000000000000000000000000000815260040161044690610ab0565b60405180910390fd5b50505b50565b60036020528060005260406000206000915090505481565b60008054905090565b60606002805480602002602001604051908101604052809291908181526020016000905b828210156105be57838290600052602060002090600302016040518060600160405290816000820160009054906101000a900473ffffffffffffffffffffffffffffffffffffffff1673ffffffffffffffffffffffffffffffffffffffff1673ffffffffffffffffffffffffffffffffffffffff1681526020016001820154815260200160028201805461052d90610cd6565b80601f016020809104026020016040519081016040528092919081815260200182805461055990610cd6565b80156105a65780601f1061057b576101008083540402835291602001916105a6565b820191906000526020600020905b81548152906001019060200180831161058957829003601f168201915b5050505050815250508152602001906001019061049a565b50505050905090565b61065f82826040516024016105dd929190610a60565b6040516020818303038152906040527f319af333000000000000000000000000000000000000000000000000000000007bffffffffffffffffffffffffffffffffffffffffffffffffffffffff19166020820180517bffffffffffffffffffffffffffffffffffffffffffffffffffffffff8381831617835250505050610663565b5050565b60008151905060006a636f6e736f6c652e6c6f679050602083016000808483855afa5050505050565b82805461069890610cd6565b90600052602060002090601f0160209004810192826106ba5760008555610701565b82601f106106d357805160ff1916838001178555610701565b82800160010185558215610701579182015b828111156107005782518255916020019190600101906106e5565b5b50905061070e9190610712565b5090565b5b8082111561072b576000816000905550600101610713565b5090565b600061074261073d84610b60565b610b3b565b90508281526020810184848401111561075a57600080fd5b610765848285610c94565b509392505050565b60008135905061077c81610f01565b92915050565b600082601f83011261079357600080fd5b81356107a384826020860161072f565b91505092915050565b6000602082840312156107be57600080fd5b60006107cc8482850161076d565b91505092915050565b6000602082840312156107e757600080fd5b600082013567ffffffffffffffff81111561080157600080fd5b61080d84828501610782565b91505092915050565b600061082283836109bb565b905092915050565b61083381610c58565b82525050565b61084281610c58565b82525050565b600061085382610ba1565b61085d8185610bc4565b93508360208202850161086f85610b91565b8060005b858110156108ab578484038952815161088c8582610816565b945061089783610bb7565b925060208a01995050600181019050610873565b50829750879550505050505092915050565b60006108c882610bac565b6108d28185610be0565b93506108e2818560208601610ca3565b6108eb81610e26565b840191505092915050565b600061090182610bac565b61090b8185610bf1565b935061091b818560208601610ca3565b61092481610e26565b840191505092915050565b600061093c603683610bf1565b915061094782610e37565b604082019050919050565b600061095f602a83610bf1565b915061096a82610e86565b604082019050919050565b6000610982601783610bf1565b915061098d82610ed5565b602082019050919050565b60006109a5600083610bd5565b91506109b082610efe565b600082019050919050565b60006060830160008301516109d3600086018261082a565b5060208301516109e66020860182610a0b565b50604083015184820360408601526109fe82826108bd565b9150508091505092915050565b610a1481610c8a565b82525050565b610a2381610c8a565b82525050565b6000610a3482610998565b9150819050919050565b60006020820190508181036000830152610a588184610848565b905092915050565b60006040820190508181036000830152610a7a81856108f6565b9050610a896020830184610839565b9392505050565b60006020820190508181036000830152610aa98161092f565b9050919050565b60006020820190508181036000830152610ac981610952565b9050919050565b60006020820190508181036000830152610ae981610975565b9050919050565b6000602082019050610b056000830184610a1a565b92915050565b6000604082019050610b206000830185610a1a565b8181036020830152610b3281846108f6565b90509392505050565b6000610b45610b56565b9050610b518282610d08565b919050565b6000604051905090565b600067ffffffffffffffff821115610b7b57610b7a610df7565b5b610b8482610e26565b9050602081019050919050565b6000819050602082019050919050565b600081519050919050565b600081519050919050565b6000602082019050919050565b600082825260208201905092915050565b600081905092915050565b600082825260208201905092915050565b600082825260208201905092915050565b6000610c0d82610c8a565b9150610c1883610c8a565b9250827fffffffffffffffffffffffffffffffffffffffffffffffffffffffffffffffff03821115610c4d57610c4c610d6a565b5b828201905092915050565b6000610c6382610c6a565b9050919050565b600073ffffffffffffffffffffffffffffffffffffffff82169050919050565b6000819050919050565b82818337600083830152505050565b60005b83811015610cc1578082015181840152602081019050610ca6565b83811115610cd0576000848401525b50505050565b60006002820490506001821680610cee57607f821691505b60208210811415610d0257610d01610dc8565b5b50919050565b610d1182610e26565b810181811067ffffffffffffffff82111715610d3057610d2f610df7565b5b80604052505050565b6000610d4482610c8a565b9150610d4f83610c8a565b925082610d5f57610d5e610d99565b5b828206905092915050565b7f4e487b7100000000000000000000000000000000000000000000000000000000600052601160045260246000fd5b7f4e487b7100000000000000000000000000000000000000000000000000000000600052601260045260246000fd5b7f4e487b7100000000000000000000000000000000000000000000000000000000600052602260045260246000fd5b7f4e487b7100000000000000000000000000000000000000000000000000000000600052604160045260246000fd5b6000601f19601f8301169050919050565b7f536f7272792120547279696e6720746f2073656e64206d6f72652066756e647360008201527f207468616e2049206861766520617661696c61626c6500000000000000000000602082015250565b7f4641696c656420746f207769746864726177206d6f6e65792066726f6d20746860008201527f6520636f6e747261637400000000000000000000000000000000000000000000602082015250565b7f57616974206120666577206d6f7265206d696e75746573000000000000000000600082015250565b50565b610f0a81610c58565b8114610f1557600080fd5b5056fea26469706673582212205597b5b90fc22d0629cb8d123ad9e864e1b8b770588cfce9f63d10ea113c4d9c64736f6c63430008040033",
  "linkReferences": {},
  "deployedLinkReferences": {}
}