{
    "_format": "hh-sol-artifact-1",
    "contractName": "WavePortal",
    "sourceName": "contracts/WavePortal.sol",
    "abi": [
        {
            "inputs": [],
            "stateMutability": "payable",
            "type": "constructor"
        },
        {
            "anonymous": false,
            "inputs": [
                {
                    "indexed": true,
                    "internalType": "address",
                    "name": "from",
                    "type": "address"
                },
                {
                    "indexed": false,
                    "internalType": "uint256",
                    "name": "timestamp",
                    "type": "uint256"
                },
                {
                    "indexed": false,
                    "internalType": "string",
                    "name": "message",
                    "type": "string"
                }
            ],
            "name": "NewWave",
            "type": "event"
        },
        {
            "anonymous": false,
            "inputs": [
                {
                    "indexed": false,
                    "internalType": "address",
                    "name": "winner",
                    "type": "address"
                },
                {
                    "indexed": false,
                    "internalType": "string",
                    "name": "message",
                    "type": "string"
                }
            ],
            "name": "NewWinner",
            "type": "event"
        },
        {
            "inputs": [],
            "name": "getAllWaves",
            "outputs": [
                {
                    "components": [
                        {
                            "internalType": "address",
                            "name": "waver",
                            "type": "address"
                        },
                        {
                            "internalType": "uint256",
                            "name": "timestamp",
                            "type": "uint256"
                        },
                        {
                            "internalType": "string",
                            "name": "message",
                            "type": "string"
                        }
                    ],
                    "internalType": "struct WavePortal.Wave[]",
                    "name": "",
                    "type": "tuple[]"
                }
            ],
            "stateMutability": "view",
            "type": "function"
        },
        {
            "inputs": [],
            "name": "getTotalWaves",
            "outputs": [
                {
                    "internalType": "uint256",
                    "name": "",
                    "type": "uint256"
                }
            ],
            "stateMutability": "view",
            "type": "function"
        },
        {
            "inputs": [
                {
                    "internalType": "address",
                    "name": "waver",
                    "type": "address"
                }
            ],
            "name": "isWaverOkayToWave",
            "outputs": [
                {
                    "internalType": "bool",
                    "name": "",
                    "type": "bool"
                }
            ],
            "stateMutability": "view",
            "type": "function"
        },
        {
            "inputs": [
                {
                    "internalType": "address",
                    "name": "",
                    "type": "address"
                }
            ],
            "name": "lastWaveTmp",
            "outputs": [
                {
                    "internalType": "uint256",
                    "name": "",
                    "type": "uint256"
                }
            ],
            "stateMutability": "view",
            "type": "function"
        },
        {
            "inputs": [
                {
                    "internalType": "address",
                    "name": "msgOwner",
                    "type": "address"
                }
            ],
            "name": "sendLove",
            "outputs": [],
            "stateMutability": "payable",
            "type": "function"
        },
        {
            "inputs": [
                {
                    "internalType": "string",
                    "name": "_message",
                    "type": "string"
                }
            ],
            "name": "wave",
            "outputs": [],
            "stateMutability": "nonpayable",
            "type": "function"
        }
    ],
    "bytecode": "0x6080604052606444426200001491906200002c565b62000020919062000093565b60018190555062000129565b6000620000398262000089565b9150620000468362000089565b9250827fffffffffffffffffffffffffffffffffffffffffffffffffffffffffffffffff038211156200007e576200007d620000cb565b5b828201905092915050565b6000819050919050565b6000620000a08262000089565b9150620000ad8362000089565b925082620000c057620000bf620000fa565b5b828206905092915050565b7f4e487b7100000000000000000000000000000000000000000000000000000000600052601160045260246000fd5b7f4e487b7100000000000000000000000000000000000000000000000000000000600052601260045260246000fd5b61161280620001396000396000f3fe6080604052600436106100555760003560e01c80632a5251211461005a578063449d46c0146100765780637065fa451461009f5780639a2cdc08146100dc578063ba77ead414610107578063bd43a90814610144575b600080fd5b610074600480360381019061006f9190610b7c565b61016f565b005b34801561008257600080fd5b5061009d60048036038101906100989190610ba5565b610451565b005b3480156100ab57600080fd5b506100c660048036038101906100c19190610b7c565b6107cd565b6040516100d39190611012565b60405180910390f35b3480156100e857600080fd5b506100f16107e5565b6040516100fe9190611012565b60405180910390f35b34801561011357600080fd5b5061012e60048036038101906101299190610b7c565b6107ee565b60405161013b9190610f27565b60405180910390f35b34801561015057600080fd5b50610159610846565b6040516101669190610f05565b60405180910390f35b655af3107a400034146101b7576040517f08c379a00000000000000000000000000000000000000000000000000000000081526004016101ae90610fd2565b60405180910390fd5b3373ffffffffffffffffffffffffffffffffffffffff168173ffffffffffffffffffffffffffffffffffffffff161415610226576040517f08c379a000000000000000000000000000000000000000000000000000000000815260040161021d90610ff2565b60405180910390fd5b606460015444426102379190611124565b6102419190611124565b61024b91906112c1565b60018190555060646001541161044e5760006509184e72a000905047816002610274919061117a565b11156102b5576040517f08c379a00000000000000000000000000000000000000000000000000000000081526004016102ac90610f72565b60405180910390fd5b60003373ffffffffffffffffffffffffffffffffffffffff16826040516102db90610e94565b60006040518083038185875af1925050503d8060008114610318576040519150601f19603f3d011682016040523d82523d6000602084013e61031d565b606091505b5050905060008373ffffffffffffffffffffffffffffffffffffffff168360405161034790610e94565b60006040518083038185875af1925050503d8060008114610384576040519150601f19603f3d011682016040523d82523d6000602084013e610389565b606091505b5050905060008280156103995750815b9050806103db576040517f08c379a00000000000000000000000000000000000000000000000000000000081526004016103d290610fb2565b60405180910390fd5b7fc36ab60bda369ed50d31b9c75411b0c6fb7a5aa626b99cabb180c9debc27251d3360405161040a9190610ed7565b60405180910390a17fc36ab60bda369ed50d31b9c75411b0c6fb7a5aa626b99cabb180c9debc27251d856040516104419190610ea9565b60405180910390a1505050505b50565b4261012c600360003373ffffffffffffffffffffffffffffffffffffffff1673ffffffffffffffffffffffffffffffffffffffff1681526020019081526020016000205461049f9190611124565b106104df576040517f08c379a00000000000000000000000000000000000000000000000000000000081526004016104d690610f92565b60405180910390fd5b606460015444426104f09190611124565b6104fa9190611124565b61050491906112c1565b60018190555042600360003373ffffffffffffffffffffffffffffffffffffffff1673ffffffffffffffffffffffffffffffffffffffff1681526020019081526020016000208190555060016000808282546105609190611124565b92505081905550600260405180606001604052803373ffffffffffffffffffffffffffffffffffffffff16815260200142815260200183815250908060018154018082558091505060019003906000526020600020906003020160009091909190915060008201518160000160006101000a81548173ffffffffffffffffffffffffffffffffffffffff021916908373ffffffffffffffffffffffffffffffffffffffff160217905550602082015181600101556040820151816002019080519060200190610630929190610a5c565b5050503373ffffffffffffffffffffffffffffffffffffffff167f5f7e16dc676677766a70e9c5628aa6c54ddb8b6e5188e2ae1e1f17f1ffbea716428360405161067b92919061102d565b60405180910390a2600a600154116107ca576106cc6040518060400160405280601081526020017f596f75206861766520776f6e202573200000000000000000000000000000000081525033610997565b600066038d7ea4c6800090504781111561071b576040517f08c379a000000000000000000000000000000000000000000000000000000000815260040161071290610f72565b60405180910390fd5b60003373ffffffffffffffffffffffffffffffffffffffff168260405161074190610e94565b60006040518083038185875af1925050503d806000811461077e576040519150601f19603f3d011682016040523d82523d6000602084013e610783565b606091505b50509050806107c7576040517f08c379a00000000000000000000000000000000000000000000000000000000081526004016107be90610fb2565b60405180910390fd5b50505b50565b60036020528060005260406000206000915090505481565b60008054905090565b600042610384600360008573ffffffffffffffffffffffffffffffffffffffff1673ffffffffffffffffffffffffffffffffffffffff1681526020019081526020016000205461083e9190611124565b109050919050565b60606002805480602002602001604051908101604052809291908181526020016000905b8282101561098e57838290600052602060002090600302016040518060600160405290816000820160009054906101000a900473ffffffffffffffffffffffffffffffffffffffff1673ffffffffffffffffffffffffffffffffffffffff1673ffffffffffffffffffffffffffffffffffffffff168152602001600182015481526020016002820180546108fd9061125e565b80601f01602080910402602001604051908101604052809291908181526020018280546109299061125e565b80156109765780601f1061094b57610100808354040283529160200191610976565b820191906000526020600020905b81548152906001019060200180831161095957829003601f168201915b5050505050815250508152602001906001019061086a565b50505050905090565b610a2f82826040516024016109ad929190610f42565b6040516020818303038152906040527f319af333000000000000000000000000000000000000000000000000000000007bffffffffffffffffffffffffffffffffffffffffffffffffffffffff19166020820180517bffffffffffffffffffffffffffffffffffffffffffffffffffffffff8381831617835250505050610a33565b5050565b60008151905060006a636f6e736f6c652e6c6f679050602083016000808483855afa5050505050565b828054610a689061125e565b90600052602060002090601f016020900481019282610a8a5760008555610ad1565b82601f10610aa357805160ff1916838001178555610ad1565b82800160010185558215610ad1579182015b82811115610ad0578251825591602001919060010190610ab5565b5b509050610ade9190610ae2565b5090565b5b80821115610afb576000816000905550600101610ae3565b5090565b6000610b12610b0d84611082565b61105d565b905082815260208101848484011115610b2a57600080fd5b610b3584828561121c565b509392505050565b600081359050610b4c816115c5565b92915050565b600082601f830112610b6357600080fd5b8135610b73848260208601610aff565b91505092915050565b600060208284031215610b8e57600080fd5b6000610b9c84828501610b3d565b91505092915050565b600060208284031215610bb757600080fd5b600082013567ffffffffffffffff811115610bd157600080fd5b610bdd84828501610b52565b91505092915050565b6000610bf28383610e26565b905092915050565b610c03816111d4565b82525050565b610c12816111d4565b82525050565b6000610c23826110c3565b610c2d81856110e6565b935083602082028501610c3f856110b3565b8060005b85811015610c7b5784840389528151610c5c8582610be6565b9450610c67836110d9565b925060208a01995050600181019050610c43565b50829750879550505050505092915050565b610c96816111e6565b82525050565b6000610ca7826110ce565b610cb18185611102565b9350610cc181856020860161122b565b610cca816113ae565b840191505092915050565b6000610ce0826110ce565b610cea8185611113565b9350610cfa81856020860161122b565b610d03816113ae565b840191505092915050565b6000610d1b603683611113565b9150610d26826113bf565b604082019050919050565b6000610d3e603a83611113565b9150610d498261140e565b604082019050919050565b6000610d61601783611113565b9150610d6c8261145d565b602082019050919050565b6000610d84602a83611113565b9150610d8f82611486565b604082019050919050565b6000610da7601783611113565b9150610db2826114d5565b602082019050919050565b6000610dca604083611113565b9150610dd5826114fe565b604082019050919050565b6000610ded6000836110f7565b9150610df88261154d565b600082019050919050565b6000610e10604183611113565b9150610e1b82611550565b606082019050919050565b6000606083016000830151610e3e6000860182610bfa565b506020830151610e516020860182610e76565b5060408301518482036040860152610e698282610c9c565b9150508091505092915050565b610e7f81611212565b82525050565b610e8e81611212565b82525050565b6000610e9f82610de0565b9150819050919050565b6000604082019050610ebe6000830184610c09565b8181036020830152610ecf81610d31565b905092915050565b6000604082019050610eec6000830184610c09565b8181036020830152610efd81610d9a565b905092915050565b60006020820190508181036000830152610f1f8184610c18565b905092915050565b6000602082019050610f3c6000830184610c8d565b92915050565b60006040820190508181036000830152610f5c8185610cd5565b9050610f6b6020830184610c09565b9392505050565b60006020820190508181036000830152610f8b81610d0e565b9050919050565b60006020820190508181036000830152610fab81610d54565b9050919050565b60006020820190508181036000830152610fcb81610d77565b9050919050565b60006020820190508181036000830152610feb81610dbd565b9050919050565b6000602082019050818103600083015261100b81610e03565b9050919050565b60006020820190506110276000830184610e85565b92915050565b60006040820190506110426000830185610e85565b81810360208301526110548184610cd5565b90509392505050565b6000611067611078565b90506110738282611290565b919050565b6000604051905090565b600067ffffffffffffffff82111561109d5761109c61137f565b5b6110a6826113ae565b9050602081019050919050565b6000819050602082019050919050565b600081519050919050565b600081519050919050565b6000602082019050919050565b600082825260208201905092915050565b600081905092915050565b600082825260208201905092915050565b600082825260208201905092915050565b600061112f82611212565b915061113a83611212565b9250827fffffffffffffffffffffffffffffffffffffffffffffffffffffffffffffffff0382111561116f5761116e6112f2565b5b828201905092915050565b600061118582611212565b915061119083611212565b9250817fffffffffffffffffffffffffffffffffffffffffffffffffffffffffffffffff04831182151516156111c9576111c86112f2565b5b828202905092915050565b60006111df826111f2565b9050919050565b60008115159050919050565b600073ffffffffffffffffffffffffffffffffffffffff82169050919050565b6000819050919050565b82818337600083830152505050565b60005b8381101561124957808201518184015260208101905061122e565b83811115611258576000848401525b50505050565b6000600282049050600182168061127657607f821691505b6020821081141561128a57611289611350565b5b50919050565b611299826113ae565b810181811067ffffffffffffffff821117156112b8576112b761137f565b5b80604052505050565b60006112cc82611212565b91506112d783611212565b9250826112e7576112e6611321565b5b828206905092915050565b7f4e487b7100000000000000000000000000000000000000000000000000000000600052601160045260246000fd5b7f4e487b7100000000000000000000000000000000000000000000000000000000600052601260045260246000fd5b7f4e487b7100000000000000000000000000000000000000000000000000000000600052602260045260246000fd5b7f4e487b7100000000000000000000000000000000000000000000000000000000600052604160045260246000fd5b6000601f19601f8301169050919050565b7f536f7272792120547279696e6720746f2073656e64206d6f72652066756e647360008201527f207468616e2049206861766520617661696c61626c6500000000000000000000602082015250565b7f536f6d656f6e65206c696b656420796f757220636f6d6d656e7420616e64207960008201527f6f7520626f746820776f6e20736f6d65206a7569637920657468000000000000602082015250565b7f57616974206120666577206d6f7265206d696e75746573000000000000000000600082015250565b7f4661696c656420746f207769746864726177206d6f6e65792066726f6d20746860008201527f6520636f6e747261637400000000000000000000000000000000000000000000602082015250565b7f596f7520776f6e20736f6d65206a756963792065746821000000000000000000600082015250565b7f536f6d657468696e672069732066697368792e20596f75206172652073656e6460008201527f696e67207573207468652077726f6e6720616d6f756e74206f66206574686572602082015250565b50565b7f4c657427732073707265616420746865206c6f7665212053656e6420736f6d6560008201527f20746f20736f6d656f6e6520656c7365206e6f7420746f20796f757273656c6660208201527f2e00000000000000000000000000000000000000000000000000000000000000604082015250565b6115ce816111d4565b81146115d957600080fd5b5056fea2646970667358221220590e4820cb9f10b59460ca86537dfe386bec45eb6441f534017762b46f0fccf864736f6c63430008040033",
    "linkReferences": {},
    "deployedLinkReferences": {}
}