{
  "_format": "hh-sol-artifact-1",
  "contractName": "WavePortal",
  "sourceName": "contracts/WavePortal.sol",
  "abi": [
    {
      "inputs": [],
      "stateMutability": "payable",
      "type": "constructor"
    },
    {
      "anonymous": false,
      "inputs": [
        {
          "indexed": true,
          "internalType": "address",
          "name": "from",
          "type": "address"
        },
        {
          "indexed": false,
          "internalType": "uint256",
          "name": "timestamp",
          "type": "uint256"
        },
        {
          "indexed": false,
          "internalType": "string",
          "name": "message",
          "type": "string"
        },
        {
          "indexed": false,
          "internalType": "uint256",
          "name": "id",
          "type": "uint256"
        }
      ],
      "name": "NewWave",
      "type": "event"
    },
    {
      "anonymous": false,
      "inputs": [
        {
          "indexed": false,
          "internalType": "address",
          "name": "winner",
          "type": "address"
        },
        {
          "indexed": false,
          "internalType": "string",
          "name": "message",
          "type": "string"
        }
      ],
      "name": "NewWinner",
      "type": "event"
    },
    {
      "inputs": [],
      "name": "getAllWaves",
      "outputs": [
        {
          "components": [
            {
              "internalType": "address",
              "name": "waver",
              "type": "address"
            },
            {
              "internalType": "uint256",
              "name": "timestamp",
              "type": "uint256"
            },
            {
              "internalType": "string",
              "name": "message",
              "type": "string"
            },
            {
              "internalType": "uint256",
              "name": "id",
              "type": "uint256"
            }
          ],
          "internalType": "struct WavePortal.Wave[]",
          "name": "",
          "type": "tuple[]"
        }
      ],
      "stateMutability": "view",
      "type": "function"
    },
    {
      "inputs": [],
      "name": "getTotalWaves",
      "outputs": [
        {
          "internalType": "uint256",
          "name": "",
          "type": "uint256"
        }
      ],
      "stateMutability": "view",
      "type": "function"
    },
    {
      "inputs": [
        {
          "internalType": "address",
          "name": "waver",
          "type": "address"
        }
      ],
      "name": "isWaverOkayToWave",
      "outputs": [
        {
          "internalType": "bool",
          "name": "",
          "type": "bool"
        }
      ],
      "stateMutability": "view",
      "type": "function"
    },
    {
      "inputs": [
        {
          "internalType": "address",
          "name": "",
          "type": "address"
        }
      ],
      "name": "lastWaveTmp",
      "outputs": [
        {
          "internalType": "uint256",
          "name": "",
          "type": "uint256"
        }
      ],
      "stateMutability": "view",
      "type": "function"
    },
    {
      "inputs": [
        {
          "internalType": "address",
          "name": "msgOwner",
          "type": "address"
        }
      ],
      "name": "sendLove",
      "outputs": [],
      "stateMutability": "payable",
      "type": "function"
    },
    {
      "inputs": [
        {
          "internalType": "string",
          "name": "_message",
          "type": "string"
        }
      ],
      "name": "wave",
      "outputs": [],
      "stateMutability": "nonpayable",
      "type": "function"
    }
  ],
  "bytecode": "0x6080604052606444426200001491906200002c565b62000020919062000093565b60018190555062000129565b6000620000398262000089565b9150620000468362000089565b9250827fffffffffffffffffffffffffffffffffffffffffffffffffffffffffffffffff038211156200007e576200007d620000cb565b5b828201905092915050565b6000819050919050565b6000620000a08262000089565b9150620000ad8362000089565b925082620000c057620000bf620000fa565b5b828206905092915050565b7f4e487b7100000000000000000000000000000000000000000000000000000000600052601160045260246000fd5b7f4e487b7100000000000000000000000000000000000000000000000000000000600052601260045260246000fd5b6114c980620001396000396000f3fe6080604052600436106100555760003560e01c80632a5251211461005a578063449d46c0146100765780637065fa451461009f5780639a2cdc08146100dc578063ba77ead414610107578063bd43a90814610144575b600080fd5b610074600480360381019061006f91906109d6565b61016f565b005b34801561008257600080fd5b5061009d600480360381019061009891906109ff565b610452565b005b3480156100ab57600080fd5b506100c660048036038101906100c191906109d6565b6106e2565b6040516100d39190610e92565b60405180910390f35b3480156100e857600080fd5b506100f16106fa565b6040516100fe9190610e92565b60405180910390f35b34801561011357600080fd5b5061012e600480360381019061012991906109d6565b610703565b60405161013b9190610db7565b60405180910390f35b34801561015057600080fd5b5061015961075b565b6040516101669190610d95565b60405180910390f35b655af3107a400034146101b7576040517f08c379a00000000000000000000000000000000000000000000000000000000081526004016101ae90610e32565b60405180910390fd5b3373ffffffffffffffffffffffffffffffffffffffff168173ffffffffffffffffffffffffffffffffffffffff161415610226576040517f08c379a000000000000000000000000000000000000000000000000000000000815260040161021d90610e72565b60405180910390fd5b606460015444426102379190610fb2565b6102419190610fb2565b61024b919061114f565b60018190555060096001541161044f57600066016bcc41e900009050478160026102759190611008565b11156102b6576040517f08c379a00000000000000000000000000000000000000000000000000000000081526004016102ad90610dd2565b60405180910390fd5b60003373ffffffffffffffffffffffffffffffffffffffff16826040516102dc90610d24565b60006040518083038185875af1925050503d8060008114610319576040519150601f19603f3d011682016040523d82523d6000602084013e61031e565b606091505b5050905060008373ffffffffffffffffffffffffffffffffffffffff168360405161034890610d24565b60006040518083038185875af1925050503d8060008114610385576040519150601f19603f3d011682016040523d82523d6000602084013e61038a565b606091505b50509050600082801561039a5750815b9050806103dc576040517f08c379a00000000000000000000000000000000000000000000000000000000081526004016103d390610e12565b60405180910390fd5b7fc36ab60bda369ed50d31b9c75411b0c6fb7a5aa626b99cabb180c9debc27251d3360405161040b9190610d67565b60405180910390a17fc36ab60bda369ed50d31b9c75411b0c6fb7a5aa626b99cabb180c9debc27251d856040516104429190610d39565b60405180910390a1505050505b50565b42610258600360003373ffffffffffffffffffffffffffffffffffffffff1673ffffffffffffffffffffffffffffffffffffffff168152602001908152602001600020546104a09190610fb2565b106104e0576040517f08c379a00000000000000000000000000000000000000000000000000000000081526004016104d790610df2565b60405180910390fd5b606481511115610525576040517f08c379a000000000000000000000000000000000000000000000000000000000815260040161051c90610e52565b60405180910390fd5b606460015444426105369190610fb2565b6105409190610fb2565b61054a919061114f565b60018190555042600360003373ffffffffffffffffffffffffffffffffffffffff1673ffffffffffffffffffffffffffffffffffffffff1681526020019081526020016000208190555060016000808282546105a69190610fb2565b92505081905550600260405180608001604052803373ffffffffffffffffffffffffffffffffffffffff168152602001428152602001838152602001600054815250908060018154018082558091505060019003906000526020600020906004020160009091909190915060008201518160000160006101000a81548173ffffffffffffffffffffffffffffffffffffffff021916908373ffffffffffffffffffffffffffffffffffffffff16021790555060208201518160010155604082015181600201908051906020019061067e9291906108b6565b506060820151816003015550503373ffffffffffffffffffffffffffffffffffffffff167f3e113f502ff7c90598a6182f87f699985e9c373d089ba56a11d88a26891c5c8b42836000546040516106d793929190610ead565b60405180910390a250565b60036020528060005260406000206000915090505481565b60008054905090565b600042610384600360008573ffffffffffffffffffffffffffffffffffffffff1673ffffffffffffffffffffffffffffffffffffffff168152602001908152602001600020546107539190610fb2565b109050919050565b60606002805480602002602001604051908101604052809291908181526020016000905b828210156108ad57838290600052602060002090600402016040518060800160405290816000820160009054906101000a900473ffffffffffffffffffffffffffffffffffffffff1673ffffffffffffffffffffffffffffffffffffffff1673ffffffffffffffffffffffffffffffffffffffff16815260200160018201548152602001600282018054610812906110ec565b80601f016020809104026020016040519081016040528092919081815260200182805461083e906110ec565b801561088b5780601f106108605761010080835404028352916020019161088b565b820191906000526020600020905b81548152906001019060200180831161086e57829003601f168201915b505050505081526020016003820154815250508152602001906001019061077f565b50505050905090565b8280546108c2906110ec565b90600052602060002090601f0160209004810192826108e4576000855561092b565b82601f106108fd57805160ff191683800117855561092b565b8280016001018555821561092b579182015b8281111561092a57825182559160200191906001019061090f565b5b509050610938919061093c565b5090565b5b8082111561095557600081600090555060010161093d565b5090565b600061096c61096784610f10565b610eeb565b90508281526020810184848401111561098457600080fd5b61098f8482856110aa565b509392505050565b6000813590506109a68161147c565b92915050565b600082601f8301126109bd57600080fd5b81356109cd848260208601610959565b91505092915050565b6000602082840312156109e857600080fd5b60006109f684828501610997565b91505092915050565b600060208284031215610a1157600080fd5b600082013567ffffffffffffffff811115610a2b57600080fd5b610a37848285016109ac565b91505092915050565b6000610a4c8383610ca3565b905092915050565b610a5d81611062565b82525050565b610a6c81611062565b82525050565b6000610a7d82610f51565b610a878185610f74565b935083602082028501610a9985610f41565b8060005b85811015610ad55784840389528151610ab68582610a40565b9450610ac183610f67565b925060208a01995050600181019050610a9d565b50829750879550505050505092915050565b610af081611074565b82525050565b6000610b0182610f5c565b610b0b8185610f90565b9350610b1b8185602086016110b9565b610b248161123c565b840191505092915050565b6000610b3a82610f5c565b610b448185610fa1565b9350610b548185602086016110b9565b610b5d8161123c565b840191505092915050565b6000610b75603683610fa1565b9150610b808261124d565b604082019050919050565b6000610b98603a83610fa1565b9150610ba38261129c565b604082019050919050565b6000610bbb601783610fa1565b9150610bc6826112eb565b602082019050919050565b6000610bde602a83610fa1565b9150610be982611314565b604082019050919050565b6000610c01601783610fa1565b9150610c0c82611363565b602082019050919050565b6000610c24604083610fa1565b9150610c2f8261138c565b604082019050919050565b6000610c47601383610fa1565b9150610c52826113db565b602082019050919050565b6000610c6a600083610f85565b9150610c7582611404565b600082019050919050565b6000610c8d604183610fa1565b9150610c9882611407565b606082019050919050565b6000608083016000830151610cbb6000860182610a54565b506020830151610cce6020860182610d06565b5060408301518482036040860152610ce68282610af6565b9150506060830151610cfb6060860182610d06565b508091505092915050565b610d0f816110a0565b82525050565b610d1e816110a0565b82525050565b6000610d2f82610c5d565b9150819050919050565b6000604082019050610d4e6000830184610a63565b8181036020830152610d5f81610b8b565b905092915050565b6000604082019050610d7c6000830184610a63565b8181036020830152610d8d81610bf4565b905092915050565b60006020820190508181036000830152610daf8184610a72565b905092915050565b6000602082019050610dcc6000830184610ae7565b92915050565b60006020820190508181036000830152610deb81610b68565b9050919050565b60006020820190508181036000830152610e0b81610bae565b9050919050565b60006020820190508181036000830152610e2b81610bd1565b9050919050565b60006020820190508181036000830152610e4b81610c17565b9050919050565b60006020820190508181036000830152610e6b81610c3a565b9050919050565b60006020820190508181036000830152610e8b81610c80565b9050919050565b6000602082019050610ea76000830184610d15565b92915050565b6000606082019050610ec26000830186610d15565b8181036020830152610ed48185610b2f565b9050610ee36040830184610d15565b949350505050565b6000610ef5610f06565b9050610f01828261111e565b919050565b6000604051905090565b600067ffffffffffffffff821115610f2b57610f2a61120d565b5b610f348261123c565b9050602081019050919050565b6000819050602082019050919050565b600081519050919050565b600081519050919050565b6000602082019050919050565b600082825260208201905092915050565b600081905092915050565b600082825260208201905092915050565b600082825260208201905092915050565b6000610fbd826110a0565b9150610fc8836110a0565b9250827fffffffffffffffffffffffffffffffffffffffffffffffffffffffffffffffff03821115610ffd57610ffc611180565b5b828201905092915050565b6000611013826110a0565b915061101e836110a0565b9250817fffffffffffffffffffffffffffffffffffffffffffffffffffffffffffffffff048311821515161561105757611056611180565b5b828202905092915050565b600061106d82611080565b9050919050565b60008115159050919050565b600073ffffffffffffffffffffffffffffffffffffffff82169050919050565b6000819050919050565b82818337600083830152505050565b60005b838110156110d75780820151818401526020810190506110bc565b838111156110e6576000848401525b50505050565b6000600282049050600182168061110457607f821691505b60208210811415611118576111176111de565b5b50919050565b6111278261123c565b810181811067ffffffffffffffff821117156111465761114561120d565b5b80604052505050565b600061115a826110a0565b9150611165836110a0565b925082611175576111746111af565b5b828206905092915050565b7f4e487b7100000000000000000000000000000000000000000000000000000000600052601160045260246000fd5b7f4e487b7100000000000000000000000000000000000000000000000000000000600052601260045260246000fd5b7f4e487b7100000000000000000000000000000000000000000000000000000000600052602260045260246000fd5b7f4e487b7100000000000000000000000000000000000000000000000000000000600052604160045260246000fd5b6000601f19601f8301169050919050565b7f536f7272792120547279696e6720746f2073656e64206d6f72652066756e647360008201527f207468616e2049206861766520617661696c61626c6500000000000000000000602082015250565b7f536f6d656f6e65206c696b656420796f757220636f6d6d656e7420616e64207960008201527f6f7520626f746820776f6e20736f6d65206a7569637920657468000000000000602082015250565b7f57616974206120666577206d6f7265206d696e75746573000000000000000000600082015250565b7f4661696c656420746f207769746864726177206d6f6e65792066726f6d20746860008201527f6520636f6e747261637400000000000000000000000000000000000000000000602082015250565b7f596f7520776f6e20736f6d65206a756963792065746821000000000000000000600082015250565b7f536f6d657468696e672069732066697368792e20596f75206172652073656e6460008201527f696e67207573207468652077726f6e6720616d6f756e74206f66206574686572602082015250565b7f54686174207761766520697320746f2062696700000000000000000000000000600082015250565b50565b7f4c657427732073707265616420746865206c6f7665212053656e6420736f6d6560008201527f20746f20736f6d656f6e6520656c7365206e6f7420746f20796f757273656c6660208201527f2e00000000000000000000000000000000000000000000000000000000000000604082015250565b61148581611062565b811461149057600080fd5b5056fea26469706673582212202ef6fe9da9e346b4f7242960c011d4e8b009506bb55cd9c5167da08b111baf8c64736f6c63430008040033",
  "linkReferences": {},
  "deployedLinkReferences": {}
}